{
  "contractName": "Enroute",
  "abi": [
    {
      "constant": true,
      "inputs": [],
      "name": "owner",
      "outputs": [
        {
          "name": "",
          "type": "address"
        }
      ],
      "payable": false,
      "stateMutability": "view",
      "type": "function"
    },
    {
      "inputs": [],
      "payable": false,
      "stateMutability": "nonpayable",
      "type": "constructor"
    },
    {
      "constant": false,
      "inputs": [],
      "name": "confirmShipment",
      "outputs": [],
      "payable": false,
      "stateMutability": "nonpayable",
      "type": "function"
    }
  ],
  "bytecode": "0x608060405234801561001057600080fd5b50336000806101000a81548173ffffffffffffffffffffffffffffffffffffffff021916908373ffffffffffffffffffffffffffffffffffffffff160217905550610109806100606000396000f3006080604052600436106049576000357c0100000000000000000000000000000000000000000000000000000000900463ffffffff1680638da5cb5b14604e578063feb71d9a1460a2575b600080fd5b348015605957600080fd5b50606060b6565b604051808273ffffffffffffffffffffffffffffffffffffffff1673ffffffffffffffffffffffffffffffffffffffff16815260200191505060405180910390f35b34801560ad57600080fd5b5060b460db565b005b6000809054906101000a900473ffffffffffffffffffffffffffffffffffffffff1681565b5600a165627a7a72305820fb11f67de3ed490f958ccc6260c80c1f6d06f504cad8b8af7b93f17f0371159c0029",
  "source": "pragma solidity ^0.4.19;\n\n\ncontract Enroute {\n  address public owner;\n  mapping (bytes32 => Shipment) shipments;\n\n  enum Actor {\n    Manufacturer,\n    DeliveryTruck,\n    Supermarket\n  }\n\n  struct Shipment {\n    Actor currentOwner;\n  }\n\n  constructor() {\n    owner = msg.sender;\n  }\n  \n  function confirmShipment() {\n\n\n  }\n}\n",
  "sourcePath": "/home/deon/enroute-db/enroute-contracts/contracts/Enroute.sol",
  "compiler": {
    "name": "solc",
    "version": "0.4.23+commit.124ca40d.Emscripten.clang"
  },
  "schemaVersion": "2.0.0",
  "updatedAt": "2018-04-28T03:03:08.193Z"
}